{"abi":[{"type":"receive","stateMutability":"payable"},{"type":"function","name":"ACTIVITY_THRESHOLD","inputs":[],"outputs":[{"name":"","type":"uint256","internalType":"uint256"}],"stateMutability":"view"},{"type":"function","name":"MAX_COMMISSION","inputs":[],"outputs":[{"name":"","type":"uint256","internalType":"uint256"}],"stateMutability":"view"},{"type":"function","name":"MAX_MONIKER_BYTES","inputs":[],"outputs":[{"name":"","type":"uint256","internalType":"uint256"}],"stateMutability":"view"},{"type":"function","name":"MIN_DELEGATION","inputs":[],"outputs":[{"name":"","type":"uint256","internalType":"uint256"}],"stateMutability":"view"},{"type":"function","name":"MIN_VALIDATOR_STAKE","inputs":[],"outputs":[{"name":"","type":"uint256","internalType":"uint256"}],"stateMutability":"view"},{"type":"function","name":"PRECISION","inputs":[],"outputs":[{"name":"","type":"uint256","internalType":"uint256"}],"stateMutability":"view"},{"type":"function","name":"SLASHING_PENALTY_PERCENT","inputs":[],"outputs":[{"name":"","type":"uint256","internalType":"uint256"}],"stateMutability":"view"},{"type":"function","name":"SYSTEM_CALLER","inputs":[],"outputs":[{"name":"","type":"address","internalType":"address"}],"stateMutability":"view"},{"type":"function","name":"WITHDRAWAL_DELAY","inputs":[],"outputs":[{"name":"","type":"uint256","internalType":"uint256"}],"stateMutability":"view"},{"type":"function","name":"addSelfStake","inputs":[],"outputs":[],"stateMutability":"payable"},{"type":"function","name":"attest","inputs":[],"outputs":[],"stateMutability":"nonpayable"},{"type":"function","name":"claimRewards","inputs":[{"name":"validator","type":"address","internalType":"address"}],"outputs":[],"stateMutability":"nonpayable"},{"type":"function","name":"claimUnbondedSelfStake","inputs":[],"outputs":[],"stateMutability":"nonpayable"},{"type":"function","name":"claimValidatorRewards","inputs":[],"outputs":[],"stateMutability":"nonpayable"},{"type":"function","name":"completeWithdrawals","inputs":[],"outputs":[],"stateMutability":"nonpayable"},{"type":"function","name":"delegate","inputs":[{"name":"validator","type":"address","internalType":"address"}],"outputs":[],"stateMutability":"payable"},{"type":"function","name":"delegations","inputs":[{"name":"","type":"address","internalType":"address"},{"name":"","type":"address","internalType":"address"}],"outputs":[{"name":"rawAmount","type":"uint256","internalType":"uint256"},{"name":"rewardDebt","type":"uint256","internalType":"uint256"},{"name":"pendingRewards","type":"uint256","internalType":"uint256"}],"stateMutability":"view"},{"type":"function","name":"getAllValidators","inputs":[],"outputs":[{"name":"","type":"address[]","internalType":"address[]"}],"stateMutability":"view"},{"type":"function","name":"getDelegation","inputs":[{"name":"delegator","type":"address","internalType":"address"},{"name":"validator","type":"address","internalType":"address"}],"outputs":[{"name":"amount","type":"uint256","internalType":"uint256"},{"name":"pending","type":"uint256","internalType":"uint256"}],"stateMutability":"view"},{"type":"function","name":"getOnlineValidators","inputs":[],"outputs":[{"name":"","type":"address[]","internalType":"address[]"}],"stateMutability":"view"},{"type":"function","name":"getPendingWithdrawals","inputs":[{"name":"account","type":"address","internalType":"address"}],"outputs":[{"name":"ready","type":"uint256","internalType":"uint256"},{"name":"locked","type":"uint256","internalType":"uint256"}],"stateMutability":"view"},{"type":"function","name":"getUnbonding","inputs":[{"name":"validator","type":"address","internalType":"address"}],"outputs":[{"name":"amount","type":"uint256","internalType":"uint256"},{"name":"unlockTime","type":"uint256","internalType":"uint256"},{"name":"ready","type":"bool","internalType":"bool"}],"stateMutability":"view"},{"type":"function","name":"getValidator","inputs":[{"name":"validator","type":"address","internalType":"address"}],"outputs":[{"name":"selfStake","type":"uint256","internalType":"uint256"},{"name":"totalDelegated","type":"uint256","internalType":"uint256"},{"name":"commission","type":"uint256","internalType":"uint256"},{"name":"lastActiveBlock","type":"uint256","internalType":"uint256"},{"name":"isActive","type":"bool","internalType":"bool"},{"name":"isOnline","type":"bool","internalType":"bool"},{"name":"isSlashed","type":"bool","internalType":"bool"},{"name":"moniker","type":"string","internalType":"string"}],"stateMutability":"view"},{"type":"function","name":"getValidatorCount","inputs":[],"outputs":[{"name":"","type":"uint256","internalType":"uint256"}],"stateMutability":"view"},{"type":"function","name":"getValidatorRewards","inputs":[{"name":"validator","type":"address","internalType":"address"}],"outputs":[{"name":"","type":"uint256","internalType":"uint256"}],"stateMutability":"view"},{"type":"function","name":"isValidatorOnline","inputs":[{"name":"validator","type":"address","internalType":"address"}],"outputs":[{"name":"","type":"bool","internalType":"bool"}],"stateMutability":"view"},{"type":"function","name":"pendingRewards","inputs":[{"name":"delegator","type":"address","internalType":"address"},{"name":"validator","type":"address","internalType":"address"}],"outputs":[{"name":"","type":"uint256","internalType":"uint256"}],"stateMutability":"view"},{"type":"function","name":"registerValidator","inputs":[{"name":"commission","type":"uint256","internalType":"uint256"},{"name":"moniker","type":"string","internalType":"string"}],"outputs":[],"stateMutability":"payable"},{"type":"function","name":"rewardPool","inputs":[],"outputs":[{"name":"","type":"uint256","internalType":"uint256"}],"stateMutability":"view"},{"type":"function","name":"setCommission","inputs":[{"name":"newCommission","type":"uint256","internalType":"uint256"}],"outputs":[],"stateMutability":"nonpayable"},{"type":"function","name":"setMoniker","inputs":[{"name":"moniker","type":"string","internalType":"string"}],"outputs":[],"stateMutability":"nonpayable"},{"type":"function","name":"slash","inputs":[{"name":"validator","type":"address","internalType":"address"}],"outputs":[],"stateMutability":"nonpayable"},{"type":"function","name":"slashedFunds","inputs":[],"outputs":[{"name":"","type":"uint256","internalType":"uint256"}],"stateMutability":"view"},{"type":"function","name":"totalStaked","inputs":[],"outputs":[{"name":"","type":"uint256","internalType":"uint256"}],"stateMutability":"view"},{"type":"function","name":"totalValidators","inputs":[],"outputs":[{"name":"","type":"uint256","internalType":"uint256"}],"stateMutability":"view"},{"type":"function","name":"undelegate","inputs":[{"name":"validator","type":"address","internalType":"address"},{"name":"amount","type":"uint256","internalType":"uint256"}],"outputs":[],"stateMutability":"nonpayable"},{"type":"function","name":"unregisterValidator","inputs":[],"outputs":[],"stateMutability":"nonpayable"},{"type":"function","name":"unstakeSelf","inputs":[{"name":"amount","type":"uint256","internalType":"uint256"}],"outputs":[],"stateMutability":"nonpayable"},{"type":"function","name":"validatorIndex","inputs":[{"name":"","type":"address","internalType":"address"}],"outputs":[{"name":"","type":"uint256","internalType":"uint256"}],"stateMutability":"view"},{"type":"function","name":"validatorList","inputs":[{"name":"","type":"uint256","internalType":"uint256"}],"outputs":[{"name":"","type":"address","internalType":"address"}],"stateMutability":"view"},{"type":"function","name":"validators","inputs":[{"name":"","type":"address","internalType":"address"}],"outputs":[{"name":"selfStake","type":"uint256","internalType":"uint256"},{"name":"totalDelegatedRaw","type":"uint256","internalType":"uint256"},{"name":"commission","type":"uint256","internalType":"uint256"},{"name":"lastActiveBlock","type":"uint256","internalType":"uint256"},{"name":"accRewardPerShare","type":"uint256","internalType":"uint256"},{"name":"slashFactor","type":"uint256","internalType":"uint256"},{"name":"ownerRewards","type":"uint256","internalType":"uint256"},{"name":"unbondingAmount","type":"uint256","internalType":"uint256"},{"name":"unbondingUnlockTime","type":"uint256","internalType":"uint256"},{"name":"isActive","type":"bool","internalType":"bool"},{"name":"isSlashed","type":"bool","internalType":"bool"},{"name":"moniker","type":"string","internalType":"string"}],"stateMutability":"view"},{"type":"function","name":"withdrawalQueue","inputs":[{"name":"","type":"address","internalType":"address"},{"name":"","type":"uint256","internalType":"uint256"}],"outputs":[{"name":"amount","type":"uint256","internalType":"uint256"},{"name":"unlockTime","type":"uint256","internalType":"uint256"},{"name":"validator","type":"address","internalType":"address"}],"stateMutability":"view"},{"type":"event","name":"CommissionChanged","inputs":[{"name":"validator","type":"address","indexed":true,"internalType":"address"},{"name":"oldCommission","type":"uint256","indexed":false,"internalType":"uint256"},{"name":"newCommission","type":"uint256","indexed":false,"internalType":"uint256"}],"anonymous":false},{"type":"event","name":"Delegated","inputs":[{"name":"delegator","type":"address","indexed":true,"internalType":"address"},{"name":"validator","type":"address","indexed":true,"internalType":"address"},{"name":"amount","type":"uint256","indexed":false,"internalType":"uint256"}],"anonymous":false},{"type":"event","name":"MonikerChanged","inputs":[{"name":"validator","type":"address","indexed":true,"internalType":"address"},{"name":"moniker","type":"string","indexed":false,"internalType":"string"}],"anonymous":false},{"type":"event","name":"RewardsClaimed","inputs":[{"name":"account","type":"address","indexed":true,"internalType":"address"},{"name":"validator","type":"address","indexed":true,"internalType":"address"},{"name":"amount","type":"uint256","indexed":false,"internalType":"uint256"}],"anonymous":false},{"type":"event","name":"RewardsDistributed","inputs":[{"name":"amount","type":"uint256","indexed":false,"internalType":"uint256"},{"name":"onlineStake","type":"uint256","indexed":false,"internalType":"uint256"}],"anonymous":false},{"type":"event","name":"SelfStakeAdded","inputs":[{"name":"validator","type":"address","indexed":true,"internalType":"address"},{"name":"amount","type":"uint256","indexed":false,"internalType":"uint256"}],"anonymous":false},{"type":"event","name":"SelfStakeUnbonded","inputs":[{"name":"validator","type":"address","indexed":true,"internalType":"address"},{"name":"amount","type":"uint256","indexed":false,"internalType":"uint256"},{"name":"unlockTime","type":"uint256","indexed":false,"internalType":"uint256"}],"anonymous":false},{"type":"event","name":"Undelegated","inputs":[{"name":"delegator","type":"address","indexed":true,"internalType":"address"},{"name":"validator","type":"address","indexed":true,"internalType":"address"},{"name":"amount","type":"uint256","indexed":false,"internalType":"uint256"},{"name":"unlockTime","type":"uint256","indexed":false,"internalType":"uint256"}],"anonymous":false},{"type":"event","name":"ValidatorAttested","inputs":[{"name":"validator","type":"address","indexed":true,"internalType":"address"},{"name":"blockNumber","type":"uint256","indexed":false,"internalType":"uint256"}],"anonymous":false},{"type":"event","name":"ValidatorDeactivated","inputs":[{"name":"validator","type":"address","indexed":true,"internalType":"address"},{"name":"returnedStake","type":"uint256","indexed":false,"internalType":"uint256"}],"anonymous":false},{"type":"event","name":"ValidatorRegistered","inputs":[{"name":"validator","type":"address","indexed":true,"internalType":"address"},{"name":"stake","type":"uint256","indexed":false,"internalType":"uint256"},{"name":"commission","type":"uint256","indexed":false,"internalType":"uint256"},{"name":"moniker","type":"string","indexed":false,"internalType":"string"}],"anonymous":false},{"type":"event","name":"ValidatorSlashed","inputs":[{"name":"validator","type":"address","indexed":true,"internalType":"address"},{"name":"penalty","type":"uint256","indexed":false,"internalType":"uint256"}],"anonymous":false},{"type":"event","name":"WithdrawalCompleted","inputs":[{"name":"account","type":"address","indexed":true,"internalType":"address"},{"name":"amount","type":"uint256","indexed":false,"internalType":"uint256"}],"anonymous":false}],"bytecode":{"object":"0x608060405234801561001057600080fd5b50613193806100206000396000f3fe6080604052600436106102555760003560e01c806380ac822811610139578063c25f6ded116100b6578063e013a6251161007a578063e013a62514610736578063ef5cfb8c14610752578063f340c0d014610772578063f3513a3714610792578063fa52c7d8146107a7578063fde1c93c146107df57600080fd5b8063c25f6ded1461064a578063c64814dd14610687578063c81b356b146106e5578063c96be4cb146106fb578063d761753e1461071b57600080fd5b8063aaf5eb68116100fd578063aaf5eb68146105ac578063ad6d7426146105c8578063ae97dde8146105e8578063b048e056146105fd578063be22c64c1461063557600080fd5b806380ac8228146104e8578063817b1cd2146105085780639601ddf91461051e5780639c2a22591461054b578063aa2cb4dc1461056857600080fd5b8063427d45ec116101d25780635c19a95c116101965780635c19a95c1461046a57806366666aa91461047d5780636a887690146104935780636ca56267146104a85780636f99f15c146104bd5780637071688a146104d357600080fd5b8063427d45ec146103d457806342d6fcd6146103dc578063445a8f3e146103fe5780634d99dd16146104115780634e1730041461043157600080fd5b8063289ad76c11610219578063289ad76c1461033a5780633084e87f1461035a57806330f060171461036f578063355e6b431461039f578063414f99ae146103bf57600080fd5b806307c4bdb81461027d5780630ebb172a146102a5578063145bccef146102bc57806315049a5a146102d15780631904bb2e1461030657600080fd5b3661027857341561027657610276600754346102719190612b72565b6107f4565b005b600080fd5b34801561028957600080fd5b50610292604081565b6040519081526020015b60405180910390f35b3480156102b157600080fd5b5061029262093a8081565b3480156102c857600080fd5b50610276610ac5565b3480156102dd57600080fd5b506102f16102ec366004612ba1565b610c15565b6040805192835260208301919091520161029c565b34801561031257600080fd5b50610326610321366004612bd4565b610cc9565b60405161029c989796959493929190612c35565b34801561034657600080fd5b50610276610355366004612cca565b610dee565b34801561036657600080fd5b50610276610f01565b34801561037b57600080fd5b5061038f61038a366004612bd4565b610fb8565b604051901515815260200161029c565b3480156103ab57600080fd5b506102766103ba366004612d0c565b611016565b3480156103cb57600080fd5b50610292606481565b610276611116565b3480156103e857600080fd5b506103f161122f565b60405161029c9190612d25565b61027661040c366004612d72565b611386565b34801561041d57600080fd5b5061027661042c366004612dbe565b61165f565b34801561043d57600080fd5b5061029261044c366004612bd4565b6001600160a01b031660009081526020819052604090206006015490565b610276610478366004612bd4565b6118ae565b34801561048957600080fd5b5061029260075481565b34801561049f57600080fd5b50610276611a96565b3480156104b457600080fd5b50610276611ccd565b3480156104c957600080fd5b5061029260085481565b3480156104df57600080fd5b50600354610292565b3480156104f457600080fd5b50610292610503366004612ba1565b611ddd565b34801561051457600080fd5b5061029260055481565b34801561052a57600080fd5b50610292610539366004612bd4565b60046020526000908152604090205481565b34801561055757600080fd5b506102926801bc16d674ec80000081565b34801561057457600080fd5b50610588610583366004612dbe565b611e79565b6040805193845260208401929092526001600160a01b03169082015260600161029c565b3480156105b857600080fd5b50610292670de0b6b3a764000081565b3480156105d457600080fd5b506102766105e3366004612d0c565b611ec4565b3480156105f457600080fd5b50610292603281565b34801561060957600080fd5b5061061d610618366004612d0c565b612123565b6040516001600160a01b03909116815260200161029c565b34801561064157600080fd5b5061027661214d565b34801561065657600080fd5b5061066a610665366004612bd4565b61224b565b60408051938452602084019290925215159082015260600161029c565b34801561069357600080fd5b506106ca6106a2366004612ba1565b6001602081815260009384526040808520909152918352912080549181015460029091015483565b6040805193845260208401929092529082015260600161029c565b3480156106f157600080fd5b5061029260065481565b34801561070757600080fd5b50610276610716366004612bd4565b612294565b34801561072757600080fd5b5061061d6002600160a01b0381565b34801561074257600080fd5b50610292678ac7230489e8000081565b34801561075e57600080fd5b5061027661076d366004612bd4565b6125b9565b34801561077e57600080fd5b506102f161078d366004612bd4565b6126d6565b34801561079e57600080fd5b506103f16127a6565b3480156107b357600080fd5b506107c76107c2366004612bd4565b612808565b60405161029c9c9b9a99989796959493929190612de8565b3480156107eb57600080fd5b50610292600a81565b600354600090815b8181101561089c5760006003828154811061081957610819612e59565b6000918252602090912001546001600160a01b0316905061083981610fb8565b610843575061088a565b6001600160a01b03811660009081526020819052604090206001810154600582015461086f91906128fa565b815461087b9190612b72565b6108859086612b72565b945050505b8061089481612e6f565b9150506107fc565b50816000036108ac575050600755565b60006007819055805b82811015610a5c576000600382815481106108d2576108d2612e59565b6000918252602090912001546001600160a01b031690506108f281610fb8565b6108fc5750610a4a565b6001600160a01b03811660009081526020819052604081206001810154600582015491929161092b91906128fa565b9050600081836000015461093f9190612b72565b905060008861094e838c612e88565b6109589190612e9f565b90508060000361096c575050505050610a4a565b6109768188612b72565b96506000831561099a578261098b8584612e88565b6109959190612e9f565b61099d565b60005b9050600060648660020154836109b39190612e88565b6109bd9190612e9f565b905060006109cb8284612ec1565b90506109d78185612ec1565b8760060160008282546109ea9190612b72565b90915550508015801590610a02575060008760010154115b15610a41576001870154610a1e670de0b6b3a764000083612e88565b610a289190612e9f565b876004016000828254610a3b9190612b72565b90915550505b50505050505050505b80610a5481612e6f565b9150506108b5565b5083811015610a8657610a6f8185612ec1565b60076000828254610a809190612b72565b90915550505b60408051858152602081018590527f29e98ba00d07f171959c4ddcd2f3020debc7c52cf537a034d7e664340d098c6c910160405180910390a150505050565b336000908152602081905260409020600781015480610b1f5760405162461bcd60e51b81526020600482015260116024820152704e6f7468696e6720756e626f6e64696e6760781b60448201526064015b60405180910390fd5b8160080154421015610b655760405162461bcd60e51b815260206004820152600f60248201526e5374696c6c20756e626f6e64696e6760881b6044820152606401610b16565b60006007830181905560088301819055604051339083908381818185875af1925050503d8060008114610bb4576040519150601f19603f3d011682016040523d82523d6000602084013e610bb9565b606091505b5050905080610bda5760405162461bcd60e51b8152600401610b1690612ed4565b60405182815233907f1a39b9c5044b9f0ff56c5951e30c1ebe24911353aafcceb9250e83a24fe158c4906020015b60405180910390a2505050565b6001600160a01b03808316600090815260016020908152604080832093851683529281528282209082905291812060048101548354929384939092918491670de0b6b3a764000091610c6691612e88565b610c709190612e9f565b9050600083600101548211610c86576000610c95565b6001840154610c959083612ec1565b9050610ca9846000015484600501546128fa565b818560020154610cb99190612b72565b95509550505050505b9250929050565b6000806000806000806000606060008060008b6001600160a01b03166001600160a01b0316815260200190815260200160002090508060000154610d15826001015483600501546128fa565b60028301546003840154600985015460ff16610d308f610fb8565b8660090160019054906101000a900460ff1687600a01808054610d5290612efd565b80601f0160208091040260200160405190810160405280929190818152602001828054610d7e90612efd565b8015610dcb5780601f10610da057610100808354040283529160200191610dcb565b820191906000526020600020905b815481529060010190602001808311610dae57829003601f168201915b505050505090509850985098509850985098509850985050919395975091939597565b3360009081526020819052604090206009015460ff16610e205760405162461bcd60e51b8152600401610b1690612f37565b33600090815260208190526040902060090154610100900460ff1615610e585760405162461bcd60e51b8152600401610b1690612f6e565b6040811115610e9c5760405162461bcd60e51b815260206004820152601060248201526f4d6f6e696b657220746f6f206c6f6e6760801b6044820152606401610b16565b336000908152602081905260409020600a01610eb9828483613000565b50336001600160a01b03167f5cf78af17c9320e439d90e4b771ca651b98d79697ffc6394f0cc53c0d15e14fe8383604051610ef59291906130ea565b60405180910390a25050565b3360009081526020819052604090206009015460ff16610f335760405162461bcd60e51b8152600401610b1690612f37565b33600090815260208190526040902060090154610100900460ff1615610f6b5760405162461bcd60e51b8152600401610b1690612f6e565b336000818152602081815260409182902043600390910181905591519182527fcf6238fcade822252c81af8ec5a003c48e8ecc09c9d93bdcd12b605af1374d6191015b60405180910390a2565b6001600160a01b0381166000908152602081905260408120600981015460ff161580610fed57506009810154610100900460ff165b15610ffb5750600092915050565b606481600301544361100d9190612ec1565b11159392505050565b3360009081526020819052604090206009015460ff166110485760405162461bcd60e51b8152600401610b1690612f37565b33600090815260208190526040902060090154610100900460ff16156110805760405162461bcd60e51b8152600401610b1690612f6e565b60328111156110c75760405162461bcd60e51b8152602060048201526013602482015272086dedadad2e6e6d2dedc40e8dede40d0d2ced606b1b6044820152606401610b16565b3360008181526020818152604091829020600201805490859055825181815291820185905292917fe1b94b91bd4803bf579b5d6c54a7ca1805f5fe0b4a457afb76fc8009067487f09101610ef5565b3360009081526020819052604090206009015460ff166111485760405162461bcd60e51b8152600401610b1690612f37565b33600090815260208190526040902060090154610100900460ff16156111805760405162461bcd60e51b8152600401610b1690612f6e565b600034116111c05760405162461bcd60e51b815260206004820152600d60248201526c135d5cdd081cd95b9908105315609a1b6044820152606401610b16565b33600090815260208190526040812080543492906111df908490612b72565b9250508190555034600560008282546111f89190612b72565b909155505060405134815233907f474a7cc3009feed23271c776d517bfe6adab43df8bf2793633816f2ea76177c090602001610fae565b60606000805b6003548110156112945761126f6003828154811061125557611255612e59565b6000918252602090912001546001600160a01b0316610fb8565b15611282578161127e81612e6f565b9250505b8061128c81612e6f565b915050611235565b5060008167ffffffffffffffff8111156112b0576112b0612f9c565b6040519080825280602002602001820160405280156112d9578160200160208202803683370190505b5090506000805b60035481101561137d576113006003828154811061125557611255612e59565b1561136b576003818154811061131857611318612e59565b6000918252602090912001546001600160a01b0316838361133881612e6f565b94508151811061134a5761134a612e59565b60200260200101906001600160a01b031690816001600160a01b0316815250505b8061137581612e6f565b9150506112e0565b50909392505050565b6801bc16d674ec8000003410156113df5760405162461bcd60e51b815260206004820152601760248201527f4d696e696d756d20333220414c542072657175697265640000000000000000006044820152606401610b16565b60328311156114265760405162461bcd60e51b8152602060048201526013602482015272086dedadad2e6e6d2dedc40e8dede40d0d2ced606b1b6044820152606401610b16565b604081111561146a5760405162461bcd60e51b815260206004820152601060248201526f4d6f6e696b657220746f6f206c6f6e6760801b6044820152606401610b16565b336000908152602081905260409020600981015460ff16156114c45760405162461bcd60e51b815260206004820152601360248201527220b63932b0b23c9030903b30b634b230ba37b960691b6044820152606401610b16565b6009810154610100900460ff16156115135760405162461bcd60e51b8152602060048201526012602482015271141c995d9a5bdd5cdb1e481cdb185cda195960721b6044820152606401610b16565b8054156115625760405162461bcd60e51b815260206004820152601a60248201527f556e626f6e642070656e64696e67207374616b652066697273740000000000006044820152606401610b16565b34815560028101849055436003820155670de0b6b3a7640000600582015560098101805460ff19166001179055600a810161159e838583613000565b50600380546001810182557fc2575a0e9e593c00f959f8c92f12db2869c3395a3b0502d05e2516446f71f85b0180546001600160a01b03191633908117909155905460009182526004602052604082205560068054916115fd83612e6f565b919050555034600560008282546116149190612b72565b909155505060405133907f92112645063ab716fa20cf53876072b2f53caadbb1cb83f41708fd0eb5200f0190611651903490889088908890613106565b60405180910390a250505050565b6001600160a01b03821660008181526020818152604080832033845260018352818420948452939091529020826116cd5760405162461bcd60e51b81526020600482015260126024820152710416d6f756e74206d757374206265203e20360741b6044820152606401610b16565b60006116e1826000015484600501546128fa565b9050838110156117335760405162461bcd60e51b815260206004820152601760248201527f496e73756666696369656e742064656c65676174696f6e0000000000000000006044820152606401610b16565b61173d3386612920565b600061174d8585600501546129ca565b835490915081111561175d575081545b808360000160008282546117719190612ec1565b925050819055508084600101600082825461178c9190612ec1565b9250508190555084600560008282546117a59190612ec1565b909155505060048401548354670de0b6b3a7640000916117c491612e88565b6117ce9190612e9f565b6001840155336000908152600260209081526040918290208251606081019093528783529190810161180362093a8042612b72565b81526001600160a01b03898116602092830181905284546001808201875560009687529584902085516003909202019081559284015194830194909455604090920151600290910180546001600160a01b03191691909216179055337f3aace7340547de7b9156593a7652dc07ee900cea3fd8f82cb6c9d38b408298028761188e62093a8042612b72565b6040805192835260208301919091520160405180910390a3505050505050565b6001600160a01b0381166000908152602081905260409020600981015460ff166119115760405162461bcd60e51b815260206004820152601460248201527356616c696461746f72206e6f742061637469766560601b6044820152606401610b16565b6009810154610100900460ff161561193b5760405162461bcd60e51b8152600401610b1690612f6e565b678ac7230489e800003410156119935760405162461bcd60e51b815260206004820152601760248201527f4d696e696d756d20313020414c542072657175697265640000000000000000006044820152606401610b16565b3360009081526001602090815260408083206001600160a01b038616845290915290208054156119c7576119c73384612920565b60006119d73484600501546129ca565b9050808260000160008282546119ed9190612b72565b9250508190555080836001016000828254611a089190612b72565b925050819055503460056000828254611a219190612b72565b909155505060048301548254670de0b6b3a764000091611a4091612e88565b611a4a9190612e9f565b60018301556040513481526001600160a01b0385169033907fe5541a6b6103d4fa7e021ed54fad39c66f27a76bd13d374cf6240ae6bd0bb72b906020015b60405180910390a350505050565b33600090815260026020526040812090805b8254811015611bec5742838281548110611ac457611ac4612e59565b90600052602060002090600302016001015411611bda57828181548110611aed57611aed612e59565b90600052602060002090600302016000015482611b0a9190612b72565b83549092508390611b1d90600190612ec1565b81548110611b2d57611b2d612e59565b9060005260206000209060030201838281548110611b4d57611b4d612e59565b60009182526020909120825460039092020190815560018083015490820155600291820154910180546001600160a01b0319166001600160a01b039092169190911790558254839080611ba257611ba2613130565b600082815260208120600360001990930192830201818155600181019190915560020180546001600160a01b03191690559055611aa8565b80611be481612e6f565b915050611aa8565b60008211611c335760405162461bcd60e51b81526020600482015260146024820152734e6f207769746864726177616c7320726561647960601b6044820152606401610b16565b604051600090339084908381818185875af1925050503d8060008114611c75576040519150601f19603f3d011682016040523d82523d6000602084013e611c7a565b606091505b5050905080611c9b5760405162461bcd60e51b8152600401610b1690612ed4565b60405183815233907f1a39b9c5044b9f0ff56c5951e30c1ebe24911353aafcceb9250e83a24fe158c490602001611651565b3360009081526020819052604090206009015460ff16611cff5760405162461bcd60e51b8152600401610b1690612f37565b33600090815260208190526040902060090154610100900460ff1615611d375760405162461bcd60e51b8152600401610b1690612f6e565b3360009081526020819052604081208054600782015491929091611d5b9083612b72565b600080855560098501805460ff19169055600580549293508492909190611d83908490612ec1565b90915550611d92905033612a2e565b60078301819055611da662093a8042612b72565b600884015560405181815233907f988e3402bf34325fbe597e20c00493d017ea71636ee463c3fd0daa8df2ad850d90602001610c08565b6001600160a01b038083166000908152600160209081526040808320938516835292815282822090829052918120600481015483549293928491670de0b6b3a764000091611e2b9190612e88565b611e359190612e9f565b9050600083600101548211611e4b576000611e5a565b6001840154611e5a9083612ec1565b9050808460020154611e6c9190612b72565b9450505050505b92915050565b60026020528160005260406000208181548110611e9557600080fd5b60009182526020909120600390910201805460018201546002909201549093509091506001600160a01b031683565b3360009081526020819052604090206009015460ff16611ef65760405162461bcd60e51b8152600401610b1690612f37565b33600090815260208190526040902060090154610100900460ff1615611f2e5760405162461bcd60e51b8152600401610b1690612f6e565b33600090815260208190526040902081611f7f5760405162461bcd60e51b81526020600482015260126024820152710416d6f756e74206d757374206265203e20360741b6044820152606401610b16565b8054821115611fd05760405162461bcd60e51b815260206004820152601760248201527f496e73756666696369656e742073656c662d7374616b650000000000000000006044820152606401610b16565b80546801bc16d674ec80000090611fe8908490612ec1565b101561204b5760405162461bcd60e51b815260206004820152602c60248201527f576f756c642066616c6c2062656c6f77206d696e696d756d3b20756e7265676960448201526b1cdd195c881a5b9cdd19585960a21b6064820152608401610b16565b60078101541561209d5760405162461bcd60e51b815260206004820152601d60248201527f556e626f6e64696e6720616c726561647920696e2070726f67726573730000006044820152606401610b16565b818160000160008282546120b19190612ec1565b9250508190555081600560008282546120ca9190612ec1565b9091555050600781018290556120e362093a8042612b72565b6008820181905560405133917f7ea3dd21124837ab12685c8887f1e20364207dc2ed2c3a6edf50775e1c44f7e191610ef591868252602082015260400190565b6003818154811061213357600080fd5b6000918252602090912001546001600160a01b0316905081565b3360009081526020819052604090206006810154806121a15760405162461bcd60e51b815260206004820152601060248201526f4e6f7468696e6720746f20636c61696d60801b6044820152606401610b16565b600060068301819055604051339083908381818185875af1925050503d80600081146121e9576040519150601f19603f3d011682016040523d82523d6000602084013e6121ee565b606091505b505090508061220f5760405162461bcd60e51b8152600401610b1690612ed4565b604051828152339081907f9310ccfcb8de723f578a9e4282ea9f521f05ae40dc08f3068dfad528a65ee3c79060200160405180910390a3505050565b6001600160a01b0381166000908152602081905260408120600781015460088201548392839290918115801590612286575082600801544210155b935093509350509193909250565b336002600160a01b03146122ea5760405162461bcd60e51b815260206004820152601760248201527f4f6e6c7920636f6e73656e737573206d61792063616c6c0000000000000000006044820152606401610b16565b6001600160a01b03811660009081526020819052604090206009810154610100900460ff161561234e5760405162461bcd60e51b815260206004820152600f60248201526e105b1c9958591e481cdb185cda1959608a1b6044820152606401610b16565b60008160050154116123945760405162461bcd60e51b815260206004820152600f60248201526e2737ba1030903b30b634b230ba37b960891b6044820152606401610b16565b60006123a8826001015483600501546128fa565b9050600081836007015484600001546123c19190612b72565b6123cb9190612b72565b9050600060646123dc600a84612e88565b6123e69190612e9f565b845490915081906000908190831115612400578654612402565b825b9050808760000160008282546124189190612ec1565b9091555061242890508184612ec1565b92506124348183612b72565b915060008311801561244a575060008760070154115b156124935760008760070154841115612467578760070154612469565b835b90508088600701600082825461247f9190612ec1565b9091555061248f90508185612ec1565b9350505b6000831180156124a35750600086115b15612505576000868411156124b857866124ba565b835b905060006124c88289612ec1565b905087818a600501546124db9190612e88565b6124e59190612e9f565b60058a01556124f48286612ec1565b94506125008285612b72565b935050505b60006125118486612ec1565b60098901805461ffff1916610100179055600554909150831115612536576000612544565b826005546125449190612ec1565b600581905550806008600082825461255c9190612b72565b9091555061256b905089612a2e565b886001600160a01b03167f17bddadfd7ec8898c3b9eadd0cf5ae77ba8d5df3a50e96ab86ec2dd711aa8fbb826040516125a691815260200190565b60405180910390a2505050505050505050565b6125c33382612920565b3360009081526001602090815260408083206001600160a01b0385168452909152902060028101548061262b5760405162461bcd60e51b815260206004820152601060248201526f4e6f7468696e6720746f20636c61696d60801b6044820152606401610b16565b600060028301819055604051339083908381818185875af1925050503d8060008114612673576040519150601f19603f3d011682016040523d82523d6000602084013e612678565b606091505b50509050806126995760405162461bcd60e51b8152600401610b1690612ed4565b6040518281526001600160a01b0385169033907f9310ccfcb8de723f578a9e4282ea9f521f05ae40dc08f3068dfad528a65ee3c790602001611a88565b6001600160a01b03811660009081526002602052604081208190815b815481101561279f574282828154811061270e5761270e612e59565b9060005260206000209060030201600101541161275b5781818154811061273757612737612e59565b906000526020600020906003020160000154846127549190612b72565b935061278d565b81818154811061276d5761276d612e59565b9060005260206000209060030201600001548361278a9190612b72565b92505b8061279781612e6f565b9150506126f2565b5050915091565b606060038054806020026020016040519081016040528092919081815260200182805480156127fe57602002820191906000526020600020905b81546001600160a01b031681526001909101906020018083116127e0575b5050505050905090565b600060208190529081526040902080546001820154600283015460038401546004850154600586015460068701546007880154600889015460098a0154600a8b0180549a9b999a989997989697959694959394929360ff80841694610100909404169290919061287790612efd565b80601f01602080910402602001604051908101604052809291908181526020018280546128a390612efd565b80156128f05780601f106128c5576101008083540402835291602001916128f0565b820191906000526020600020905b8154815290600101906020018083116128d357829003601f168201915b505050505090508c565b6000670de0b6b3a764000061290f8385612e88565b6129199190612e9f565b9392505050565b6001600160a01b038083166000908152600160209081526040808320938516835292815282822090829052918120825490910361295d5750505050565b6000670de0b6b3a76400008260040154846000015461297c9190612e88565b6129869190612e9f565b905082600101548111156129bc5760018301546129a39082612ec1565b8360020160008282546129b69190612b72565b90915550505b600190920191909155505050565b6000808211612a1b5760405162461bcd60e51b815260206004820152601760248201527f56616c696461746f722066756c6c7920736c61736865640000000000000000006044820152606401610b16565b8161290f670de0b6b3a764000085612e88565b6001600160a01b03811660009081526004602052604081205490819003612a53575050565b60035480821015612aed5760006003612a6d600184612ec1565b81548110612a7d57612a7d612e59565b6000918252602090912001546001600160a01b03169050806003612aa2600186612ec1565b81548110612ab257612ab2612e59565b600091825260208083209190910180546001600160a01b0319166001600160a01b039485161790559290911681526004909152604090208290555b6003805480612afe57612afe613130565b60008281526020808220830160001990810180546001600160a01b03191690559092019092556001600160a01b038516825260049052604081205560065415612b575760068054906000612b5183613146565b91905055505b505050565b634e487b7160e01b600052601160045260246000fd5b80820180821115611e7357611e73612b5c565b80356001600160a01b0381168114612b9c57600080fd5b919050565b60008060408385031215612bb457600080fd5b612bbd83612b85565b9150612bcb60208401612b85565b90509250929050565b600060208284031215612be657600080fd5b61291982612b85565b6000815180845260005b81811015612c1557602081850181015186830182015201612bf9565b506000602082860101526020601f19601f83011685010191505092915050565b60006101008a8352896020840152886040840152876060840152861515608084015285151560a084015284151560c08401528060e0840152612c7981840185612bef565b9b9a5050505050505050505050565b60008083601f840112612c9a57600080fd5b50813567ffffffffffffffff811115612cb257600080fd5b602083019150836020828501011115610cc257600080fd5b60008060208385031215612cdd57600080fd5b823567ffffffffffffffff811115612cf457600080fd5b612d0085828601612c88565b90969095509350505050565b600060208284031215612d1e57600080fd5b5035919050565b6020808252825182820181905260009190848201906040850190845b81811015612d665783516001600160a01b031683529284019291840191600101612d41565b50909695505050505050565b600080600060408486031215612d8757600080fd5b83359250602084013567ffffffffffffffff811115612da557600080fd5b612db186828701612c88565b9497909650939450505050565b60008060408385031215612dd157600080fd5b612dda83612b85565b946020939093013593505050565b60006101808e83528d60208401528c60408401528b60608401528a60808401528960a08401528860c08401528760e08401528661010084015285151561012084015284151561014084015280610160840152612e4681840185612bef565b9f9e505050505050505050505050505050565b634e487b7160e01b600052603260045260246000fd5b600060018201612e8157612e81612b5c565b5060010190565b8082028115828204841417611e7357611e73612b5c565b600082612ebc57634e487b7160e01b600052601260045260246000fd5b500490565b81810381811115611e7357611e73612b5c565b6020808252600f908201526e151c985b9cd9995c8819985a5b1959608a1b604082015260600190565b600181811c90821680612f1157607f821691505b602082108103612f3157634e487b7160e01b600052602260045260246000fd5b50919050565b60208082526017908201527f4e6f7420616e206163746976652076616c696461746f72000000000000000000604082015260600190565b60208082526014908201527315985b1a59185d1bdc881a5cc81cdb185cda195960621b604082015260600190565b634e487b7160e01b600052604160045260246000fd5b601f821115612b5757600081815260208120601f850160051c81016020861015612fd95750805b601f850160051c820191505b81811015612ff857828155600101612fe5565b505050505050565b67ffffffffffffffff83111561301857613018612f9c565b61302c836130268354612efd565b83612fb2565b6000601f84116001811461306057600085156130485750838201355b600019600387901b1c1916600186901b1783556130ba565b600083815260209020601f19861690835b828110156130915786850135825560209485019460019092019101613071565b50868210156130ae5760001960f88860031b161c19848701351681555b505060018560011b0183555b5050505050565b81835281816020850137506000828201602090810191909152601f909101601f19169091010190565b6020815260006130fe6020830184866130c1565b949350505050565b8481528360208201526060604082015260006131266060830184866130c1565b9695505050505050565b634e487b7160e01b600052603160045260246000fd5b60008161315557613155612b5c565b50600019019056fea2646970667358221220fa1592522f0de4701be6167a28302ab199724c995d0a300afa5332ce57ec959064736f6c63430008140033","linkReferences":{}},"methodIdentifiers":{"ACTIVITY_THRESHOLD()":"414f99ae","MAX_COMMISSION()":"ae97dde8","MAX_MONIKER_BYTES()":"07c4bdb8","MIN_DELEGATION()":"e013a625","MIN_VALIDATOR_STAKE()":"9c2a2259","PRECISION()":"aaf5eb68","SLASHING_PENALTY_PERCENT()":"fde1c93c","SYSTEM_CALLER()":"d761753e","WITHDRAWAL_DELAY()":"0ebb172a","addSelfStake()":"427d45ec","attest()":"3084e87f","claimRewards(address)":"ef5cfb8c","claimUnbondedSelfStake()":"145bccef","claimValidatorRewards()":"be22c64c","completeWithdrawals()":"6a887690","delegate(address)":"5c19a95c","delegations(address,address)":"c64814dd","getAllValidators()":"f3513a37","getDelegation(address,address)":"15049a5a","getOnlineValidators()":"42d6fcd6","getPendingWithdrawals(address)":"f340c0d0","getUnbonding(address)":"c25f6ded","getValidator(address)":"1904bb2e","getValidatorCount()":"7071688a","getValidatorRewards(address)":"4e173004","isValidatorOnline(address)":"30f06017","pendingRewards(address,address)":"80ac8228","registerValidator(uint256,string)":"445a8f3e","rewardPool()":"66666aa9","setCommission(uint256)":"355e6b43","setMoniker(string)":"289ad76c","slash(address)":"c96be4cb","slashedFunds()":"6f99f15c","totalStaked()":"817b1cd2","totalValidators()":"c81b356b","undelegate(address,uint256)":"4d99dd16","unregisterValidator()":"6ca56267","unstakeSelf(uint256)":"ad6d7426","validatorIndex(address)":"9601ddf9","validatorList(uint256)":"b048e056","validators(address)":"fa52c7d8","withdrawalQueue(address,uint256)":"aa2cb4dc"},"id":19}